{
  "contractName": "Xcoin",
  "abi": [
    {
      "inputs": [],
      "payable": false,
      "stateMutability": "nonpayable",
      "type": "constructor"
    },
    {
      "constant": true,
      "inputs": [],
      "name": "getBalance",
      "outputs": [
        {
          "internalType": "int256",
          "name": "",
          "type": "int256"
        }
      ],
      "payable": false,
      "stateMutability": "view",
      "type": "function"
    },
    {
      "constant": false,
      "inputs": [
        {
          "internalType": "int256",
          "name": "amount",
          "type": "int256"
        }
      ],
      "name": "depositBalance",
      "outputs": [],
      "payable": false,
      "stateMutability": "nonpayable",
      "type": "function"
    },
    {
      "constant": false,
      "inputs": [
        {
          "internalType": "int256",
          "name": "amount",
          "type": "int256"
        }
      ],
      "name": "withdrawBalance",
      "outputs": [],
      "payable": false,
      "stateMutability": "nonpayable",
      "type": "function"
    }
  ],
  "bytecode": "0x608060405234801561001057600080fd5b506000808190555061010d806100276000396000f3fe6080604052348015600f57600080fd5b5060043610603c5760003560e01c806312065fe01460415780637c52caa314605d578063e51ed0a0146088575b600080fd5b604760b3565b6040518082815260200191505060405180910390f35b608660048036036020811015607157600080fd5b810190808035906020019092919050505060bc565b005b60b160048036036020811015609c57600080fd5b810190808035906020019092919050505060ca565b005b60008054905090565b806000540360008190555050565b80600054016000819055505056fea265627a7a72315820db922a169ff552a5d5cc97bab609b610573ec1bb28b3529f55594f8dc0598b5c64736f6c63430005100032",
  "source": "pragma solidity ^0.5.16;\n\ncontract Xcoin {\n    int balance;\n\n    constructor () public {\n        balance = 0;\n    }\n\n    function getBalance() view public returns (int){\n        return balance;\n    }\n\n    function depositBalance(int amount) public {\n        balance = balance + amount;\n    }\n\n    function withdrawBalance(int amount) public {\n        balance = balance - amount;\n    }\n}",
  "sourcePath": "/Users/jeweiyong/Desktop/Workfolder(Jay)/Flutter/codes/soapp/contracts/Xcoin.sol",
  "compiler": {
    "name": "solc",
    "version": "0.5.16+commit.9c3226ce.Emscripten.clang"
  },
  "schemaVersion": "3.4.8",
  "updatedAt": "2022-08-23T08:15:39.372Z",
  "networkType": "ethereum",
  "devdoc": {
    "methods": {}
  },
  "userdoc": {
    "methods": {}
  }
}